{
  "contractName": "TandaPayService",
  "abi": [
    {
      "inputs": [
        {
          "name": "_dai",
          "type": "address"
        }
      ],
      "payable": false,
      "stateMutability": "nonpayable",
      "type": "constructor"
    },
    {
      "anonymous": false,
      "inputs": [
        {
          "indexed": false,
          "name": "_approved",
          "type": "address"
        }
      ],
      "name": "AdminApproved",
      "type": "event"
    },
    {
      "anonymous": false,
      "inputs": [
        {
          "indexed": false,
          "name": "_revoked",
          "type": "address"
        }
      ],
      "name": "AdminRevoked",
      "type": "event"
    },
    {
      "anonymous": false,
      "inputs": [
        {
          "indexed": false,
          "name": "_group",
          "type": "address"
        }
      ],
      "name": "GroupCreated",
      "type": "event"
    },
    {
      "anonymous": false,
      "inputs": [
        {
          "indexed": false,
          "name": "_revoked",
          "type": "address"
        },
        {
          "indexed": false,
          "name": "_group",
          "type": "address"
        }
      ],
      "name": "SecretaryRevoked",
      "type": "event"
    },
    {
      "anonymous": false,
      "inputs": [
        {
          "indexed": false,
          "name": "_group",
          "type": "address"
        }
      ],
      "name": "SecretaryInstalled",
      "type": "event"
    },
    {
      "anonymous": false,
      "inputs": [
        {
          "indexed": false,
          "name": "_group",
          "type": "address"
        }
      ],
      "name": "Remitted",
      "type": "event"
    },
    {
      "anonymous": false,
      "inputs": [
        {
          "indexed": false,
          "name": "_group",
          "type": "address"
        }
      ],
      "name": "Loaned",
      "type": "event"
    },
    {
      "constant": false,
      "inputs": [
        {
          "name": "_to",
          "type": "address"
        }
      ],
      "name": "addAdmin",
      "outputs": [],
      "payable": false,
      "stateMutability": "nonpayable",
      "type": "function"
    },
    {
      "constant": false,
      "inputs": [
        {
          "name": "_from",
          "type": "address"
        }
      ],
      "name": "removeAdmin",
      "outputs": [],
      "payable": false,
      "stateMutability": "nonpayable",
      "type": "function"
    },
    {
      "constant": false,
      "inputs": [
        {
          "name": "_to",
          "type": "address"
        },
        {
          "name": "_premium",
          "type": "uint8"
        }
      ],
      "name": "createGroup",
      "outputs": [
        {
          "name": "_group",
          "type": "address"
        }
      ],
      "payable": false,
      "stateMutability": "nonpayable",
      "type": "function"
    },
    {
      "constant": false,
      "inputs": [
        {
          "name": "_from",
          "type": "address"
        }
      ],
      "name": "removeSecretary",
      "outputs": [],
      "payable": false,
      "stateMutability": "nonpayable",
      "type": "function"
    },
    {
      "constant": false,
      "inputs": [
        {
          "name": "_secretary",
          "type": "address"
        },
        {
          "name": "_group",
          "type": "address"
        }
      ],
      "name": "installSecretary",
      "outputs": [],
      "payable": false,
      "stateMutability": "nonpayable",
      "type": "function"
    },
    {
      "constant": false,
      "inputs": [],
      "name": "processAll",
      "outputs": [],
      "payable": false,
      "stateMutability": "nonpayable",
      "type": "function"
    },
    {
      "constant": false,
      "inputs": [
        {
          "name": "_group",
          "type": "address"
        }
      ],
      "name": "remitGroup",
      "outputs": [],
      "payable": false,
      "stateMutability": "nonpayable",
      "type": "function"
    },
    {
      "constant": false,
      "inputs": [
        {
          "name": "_group",
          "type": "address"
        }
      ],
      "name": "loan",
      "outputs": [],
      "payable": false,
      "stateMutability": "nonpayable",
      "type": "function"
    }
  ],
  "bytecode": "0x608060405234801561001057600080fd5b506040516020806134c28339810180604052602081101561003057600080fd5b50513360008181526020818152604091829020805460ff19166001179055600380546001600160a01b0386166001600160a01b0319909116179055815192835290517ffabaa80f65af32f62e52c9e7740cc469e3307d1e4afc01ab4b11be61ddef48769281900390910190a150613416806100ac6000396000f3fe608060405234801561001057600080fd5b50600436106100885760003560e01c80639908cc631161005b5780639908cc6314610109578063b5e2ebc614610137578063bec0c2d11461015d578063db0ed8af1461018357610088565b80631785f53c1461008d57806335d1193c146100b557806370480275146100bd5780638b42cef4146100e3575b600080fd5b6100b3600480360360208110156100a357600080fd5b50356001600160a01b03166101ce565b005b6100b36102e5565b6100b3600480360360208110156100d357600080fd5b50356001600160a01b03166103f9565b6100b3600480360360208110156100f957600080fd5b50356001600160a01b03166104fe565b6100b36004803603604081101561011f57600080fd5b506001600160a01b038135811691602001351661067f565b6100b36004803603602081101561014d57600080fd5b50356001600160a01b0316610838565b6100b36004803603602081101561017357600080fd5b50356001600160a01b0316610889565b6101b26004803603604081101561019957600080fd5b5080356001600160a01b0316906020013560ff1661096d565b604080516001600160a01b039092168252519081900360200190f35b3360009081526020819052604090205460ff1661021f57604051600160e51b62461bcd02815260040180806020018281038252602881526020018061339f6028913960400191505060405180910390fd5b6001600160a01b03811660009081526020819052604090205460ff1661028f5760408051600160e51b62461bcd02815260206004820181905260248201527f41646472657373206973206e6f7420616e2041646d696e6973747261746f7221604482015290519081900360640190fd5b6001600160a01b03811660008181526020818152604091829020805460ff19169055815192835290517f631ff1c4e1a02c54b480a34b810e03bcee61fe38efcb243930a7f820914923e29281900390910190a150565b3360009081526020819052604090205460ff1661033657604051600160e51b62461bcd02815260040180806020018281038252602881526020018061339f6028913960400191505060405180910390fd5b60005b6103436004610ba8565b8110156103f657600081815260026020908152604091829020548251600160e01b63d94b981902815292516001600160a01b039091169263d94b9819926004808301939192829003018186803b15801561039c57600080fd5b505afa1580156103b0573d6000803e3d6000fd5b505050506040513d60208110156103c657600080fd5b5051156103ee576000818152600260205260409020546103ee906001600160a01b0316610889565b600101610339565b50565b3360009081526020819052604090205460ff1661044a57604051600160e51b62461bcd02815260040180806020018281038252602881526020018061339f6028913960400191505060405180910390fd5b6001600160a01b03811660009081526020819052604090205460ff16156104a557604051600160e51b62461bcd0281526004018080602001828103825260248152602001806133c76024913960400191505060405180910390fd5b6001600160a01b03811660008181526020818152604091829020805460ff19166001179055815192835290517ffabaa80f65af32f62e52c9e7740cc469e3307d1e4afc01ab4b11be61ddef48769281900390910190a150565b3360009081526020819052604090205460ff1661054f57604051600160e51b62461bcd02815260040180806020018281038252602881526020018061339f6028913960400191505060405180910390fd5b6001600160a01b038082166000908152600160209081526040808320548352600290915290205416806105cc5760408051600160e51b62461bcd02815260206004820152601b60248201527f41646472657373206973206e6f74206120536563726574617279210000000000604482015290519081900360640190fd5b806001600160a01b031663b3e8c46d6040518163ffffffff1660e01b8152600401600060405180830381600087803b15801561060757600080fd5b505af115801561061b573d6000803e3d6000fd5b5050506001600160a01b0380841660008181526001602090815260408083209290925581519283529285169282019290925281517fd77bd0096300bdc382b0f10114519016cb18297a42ee2857d37296cca0aa228a93509081900390910190a15050565b3360009081526020819052604090205460ff166106d057604051600160e51b62461bcd02815260040180806020018281038252602881526020018061339f6028913960400191505060405180910390fd5b306001600160a01b0316816001600160a01b0316635495d2aa6040518163ffffffff1660e01b815260040160206040518083038186803b15801561071357600080fd5b505afa158015610727573d6000803e3d6000fd5b505050506040513d602081101561073d57600080fd5b50516001600160a01b03161461078757604051600160e51b62461bcd02815260040180806020018281038252602f815260200180613370602f913960400191505060405180910390fd5b806001600160a01b0316632a1b8f9b836040518263ffffffff1660e01b815260040180826001600160a01b03166001600160a01b03168152602001915050600060405180830381600087803b1580156107df57600080fd5b505af11580156107f3573d6000803e3d6000fd5b5050604080516001600160a01b038616815290517f7d80e773f6cbccfaf2407ff34ab2a22650a8b70aef113590216ee776c45b136a9350908190036020019150a15050565b3360009081526020819052604090205460ff166103f657604051600160e51b62461bcd02815260040180806020018281038252602881526020018061339f6028913960400191505060405180910390fd5b3360009081526020819052604090205460ff166108da57604051600160e51b62461bcd02815260040180806020018281038252602881526020018061339f6028913960400191505060405180910390fd5b806001600160a01b0316637507ba396040518163ffffffff1660e01b8152600401600060405180830381600087803b15801561091557600080fd5b505af1158015610929573d6000803e3d6000fd5b5050604080516001600160a01b038516815290517f69b63ebbacbe2d6786f9658b7da768eb7af7b4409e7aa7b604071b2bf1ba2eac9350908190036020019150a150565b3360009081526020819052604081205460ff166109be57604051600160e51b62461bcd02815260040180806020018281038252602881526020018061339f6028913960400191505060405180910390fd5b6001600160a01b03838116600090815260016020908152604080832054835260029091529020541615610a3b5760408051600160e51b62461bcd02815260206004820152601f60248201527f4164647265737320697320616c72656164792061205365637265746172792100604482015290519081900360640190fd5b60ff82166005108015610a525750603260ff831611155b610a9057604051600160e51b62461bcd02815260040180806020018281038252602b815260200180613345602b913960400191505060405180910390fd5b600354604051600091859185916001600160a01b031690610ab090610bb5565b6001600160a01b03938416815260ff90921660208301529091166040808301919091525190819003606001906000f080158015610af1573d6000803e3d6000fd5b5090508091508160026000610b066004610ba8565b815260200190815260200160002060006101000a8154816001600160a01b0302191690836001600160a01b03160217905550610b426004610ba8565b6001600160a01b038516600090815260016020526040902055610b656004610bac565b604080516001600160a01b038416815290517f1f2fa2c893637aefd4d8cd79504d6c14b955233bcd2e89aece337594793ecb2e9181900360200190a15092915050565b5490565b80546001019055565b61278280610bc38339019056fe608060405234801561001057600080fd5b506040516060806127828339810180604052606081101561003057600080fd5b508051602080830151604093840151600080546001600160a01b03191633179081905585516001600160a01b0391909116815294519394919390927f4101e71e974f68df5e9730cc223280b41654676bbb052cdcc735c3337e64d2d9928290030190a1600d805460ff9093167401000000000000000000000000000000000000000002600160a01b60ff02196001600160a01b039586166001600160a01b031995861617161790556009805491909316911617905561268e806100f46000396000f3fe608060405234801561001057600080fd5b506004361061010b5760003560e01c80637507ba39116100a2578063d94b981911610071578063d94b981914610223578063dbb773d91461022b578063f802d2f214610251578063f83d08ba14610280578063f9b790c1146102885761010b565b80637507ba39146101ef578063b3e8c46d146101f7578063c6dbdf61146101ff578063c8480260146102075761010b565b806329c08ba2116100de57806329c08ba2146101955780632a1b8f9b1461019d578063474f7625146101c35780635495d2aa146101cb5761010b565b80630bf945eb146101105780631f30ed7a146101415780632348238c14610167578063293cdbf11461018d575b600080fd5b61013f6004803603604081101561012657600080fd5b5080356001600160a01b0316906020013560ff166102ae565b005b61013f6004803603602081101561015757600080fd5b50356001600160a01b0316610475565b61013f6004803603602081101561017d57600080fd5b50356001600160a01b03166106ea565b61013f6107d8565b61013f6109fb565b61013f600480360360208110156101b357600080fd5b50356001600160a01b0316610e08565b61013f610f05565b6101d361119c565b604080516001600160a01b039092168252519081900360200190f35b61013f6111ab565b61013f611274565b6101d3611329565b61020f611338565b604080519115158252519081900360200190f35b61020f611340565b61013f6004803603602081101561024157600080fd5b50356001600160a01b03166113bb565b61013f6004803603604081101561026757600080fd5b5080356001600160a01b0316906020013560ff1661163b565b61013f61183a565b61013f6004803603602081101561029e57600080fd5b50356001600160a01b0316611a49565b600d546001600160a01b031633146102fa57604051600160e51b62461bcd02815260040180806020018281038252602681526020018061263d6026913960400191505060405180910390fd5b600360005260086020526000805160206124ea8339815191525442101561035557604051600160e51b62461bcd0281526004018080602001828103825260458152602001806124816045913960600191505060405180910390fd5b60ff8116600090815260026020526040902060079061037390611be9565b106103bf5760408051600160e51b62461bcd0281526020600482015260116024820152600160781b7053756267726f75702069732066756c6c2102604482015290519081900360640190fd5b6001600160a01b03821660009081526001602090815260408083205460ff168352600290915290206103f090611bed565b60ff8116600090815260026020526040902061040b90611c04565b6001600160a01b038216600081815260016020908152604091829020805460ff86811660ff19831617909255835194855216908301819052815190927f8ea8125ff7298ac9199ada7dfa1e49c6c979db7f6ba0732958e1b7e50dbddd7792908290030190a1505050565b600d546001600160a01b031633146104c157604051600160e51b62461bcd02815260040180806020018281038252602681526020018061263d6026913960400191505060405180910390fd5b6003600081905260086020526000805160206124ea83398151915254421061051d57604051600160e51b62461bcd02815260040180806020018281038252602381526020018061250a6023913960400191505060405180910390fd5b4260086000600184600381111561053057fe5b03815260200190815260200160002054111561058057604051600160e51b62461bcd0281526004018080602001828103825260248152602001806124c66024913960400191505060405180910390fd5b600060056000610590600b611be9565b61ffff168152602080820192909252604090810160009081206001600160a01b038716825260028101909352205490915060ff168061060357604051600160e51b62461bcd02815260040180806020018281038252602d8152602001806125de602d913960400191505060405180910390fd5b600060ff8083166000908152600185016020526040902054600160a01b900416600281111561062e57fe5b14156106845760408051600160e51b62461bcd02815260206004820152601c60248201527f43616e206f6e6c792072656a656374206f70656e20436c61696d732100000000604482015290519081900360640190fd5b60ff811660009081526001830160209081526040918290208054600160a01b60ff021916905581516001600160a01b038716815291517f933402741c3c7f68ad9251e31c992a34b5675a2a59a6cbd1744733296faccb1c9281900390910190a150505050565b6000546001600160a01b0316331461073657604051600160e51b62461bcd02815260040180806020018281038252602c8152602001806125b2602c913960400191505060405180910390fd5b6001600160a01b03811661077e57604051600160e51b62461bcd02815260040180806020018281038252602a81526020018061252d602a913960400191505060405180910390fd5b600080546001600160a01b0319166001600160a01b03838116919091179182905560408051929091168252517f4101e71e974f68df5e9730cc223280b41654676bbb052cdcc735c3337e64d2d9916020908290030190a150565b3360009081526007602052604090205460ff1661082957604051600160e51b62461bcd0281526004018080602001828103825260318152602001806125816031913960400191505060405180910390fd5b6002600081905260086020527f6add646517a5b0f6793cd5891b7937d28a5b2981a5d88ebc7cd776088fea904154421061089757604051600160e51b62461bcd02815260040180806020018281038252602381526020018061250a6023913960400191505060405180910390fd5b426008600060018460038111156108aa57fe5b0381526020019081526020016000205411156108fa57604051600160e51b62461bcd0281526004018080602001828103825260248152602001806124c66024913960400191505060405180910390fd5b60006005600061090a600b611be9565b61ffff1681526020808201929092526040908101600090812033825260028101909352205490915060ff161561097457604051600160e51b62461bcd0281526004018080602001828103825260278152602001806124016027913960400191505060405180910390fd5b61097d81611c04565b600061098882611be9565b60ff8116600090815260018401602090815260409182902080546001600160a01b03191633908117600160a01b60ff021916600160a01b17909155825190815291519293507fe0f740856c4ec0bba6a35bfde30d312ee2eef42eeb7901600033a2bb3c50137792918290030190a1505050565b3360009081526001602052604090205460ff16610a4c57604051600160e51b62461bcd02815260040180806020018281038252602c815260200180612455602c913960400191505060405180910390fd5b6001600081905260086020527fad67d757c34507f157cacfa2e3153e9f260a2244f30428821be7be64587ac55f544210610aba57604051600160e51b62461bcd02815260040180806020018281038252602381526020018061250a6023913960400191505060405180910390fd5b42600860006001846003811115610acd57fe5b038152602001908152602001600020541115610b1d57604051600160e51b62461bcd0281526004018080602001828103825260248152602001806124c66024913960400191505060405180910390fd5b3360009081526001602090815260408083205460ff16835260029091528120610b4590611be9565b600d54600160a01b900460ff1681610b5957fe5b600d5460095460408051600160e01b6370a082310281523360048201529051949093049450600160a01b90910460ff908116850116926001600160a01b03909116916370a08231916024808301926020929190829003018186803b158015610bc057600080fd5b505afa158015610bd4573d6000803e3d6000fd5b505050506040513d6020811015610bea57600080fd5b50511015610c2c57604051600160e51b62461bcd02815260040180806020018281038252602d815260200180612428602d913960400191505060405180910390fd5b600954600d5460408051600160e01b63095ea7b3028152306004820152600160a01b90920460ff9081168501166024830152516001600160a01b039092169163095ea7b3916044808201926020929091908290030181600087803b158015610c9357600080fd5b505af1158015610ca7573d6000803e3d6000fd5b505050506040513d6020811015610cbd57600080fd5b5050600954600d5460408051600160e01b6323b872dd028152336004820152306024820152600160a01b90920460ff9081168501166044830152516001600160a01b03909216916323b872dd916064808201926020929091908290030181600087803b158015610d2c57600080fd5b505af1158015610d40573d6000803e3d6000fd5b505050506040513d6020811015610d5657600080fd5b50610d639050600c611c04565b3360066000610d72600c611be9565b60ff168152602081019190915260400160002080546001600160a01b0319166001600160a01b0392909216919091179055610dad600c611be9565b33600081815260076020908152604091829020805460ff191660ff95909516949094179093558051918252517fef7f507d63ae07a359f312fad1a2cf5ddc1c1b0dce245e8a660104a6a84b2de0929181900390910190a15050565b6000546001600160a01b03163314610e5457604051600160e51b62461bcd02815260040180806020018281038252602c8152602001806125b2602c913960400191505060405180910390fd5b610e5c611329565b600d546001600160a01b03908116911614610eab57604051600160e51b62461bcd02815260040180806020018281038252603281526020018061260b6032913960400191505060405180910390fd5b600d80546001600160a01b0319166001600160a01b03838116919091179182905560408051929091168252517f07fb6870e0f01ad7e4f2d6b1bcfc72edd0d1d8c4982569c8cb8bd79b9c087674916020908290030190a150565b3360009081526007602052604090205460ff16610f5657604051600160e51b62461bcd0281526004018080602001828103825260318152602001806125816031913960400191505060405180910390fd5b6003600081905260086020526000805160206124ea833981519152544210610fb257604051600160e51b62461bcd02815260040180806020018281038252602381526020018061250a6023913960400191505060405180910390fd5b42600860006001846003811115610fc557fe5b03815260200190815260200160002054111561101557604051600160e51b62461bcd0281526004018080602001828103825260248152602001806124c66024913960400191505060405180910390fd5b600060056000611025600b611be9565b61ffff1681526020808201929092526040908101600090812033825260028101909352205490915060ff1615611073573360009081526002820160205260409020546110739060ff16611c0d565b3360009081526001602090815260408083205460ff16808452600390925290912061109d81611c04565b60026110a882611be9565b106110cb5760ff82166000908152600460205260409020805460ff191660011790555b600954600d5460408051600160e01b63a9059cbb028152336004820152600160a01b90920460ff166024830152516001600160a01b039092169163a9059cbb916044808201926020929091908290030181600087803b15801561112d57600080fd5b505af1158015611141573d6000803e3d6000fd5b505050506040513d602081101561115757600080fd5b50611163905033611d2e565b6040805133815290517f7b6bd9f4e0afade30178b6864b0adb3141a63c91cd378cd9993695426e6b6bfb9181900360200190a150505050565b600d546001600160a01b031681565b6000546001600160a01b031633146111f757604051600160e51b62461bcd02815260040180806020018281038252602c8152602001806125b2602c913960400191505060405180910390fd5b600360005260086020526000805160206124ea8339815191525442101561125257604051600160e51b62461bcd0281526004018080602001828103825260458152602001806124816045913960600191505060405180910390fd5b61125a611dd3565b611262611eb6565b61126a612060565b61127261226a565b565b6000546001600160a01b031633146112c057604051600160e51b62461bcd02815260040180806020018281038252602c8152602001806125b2602c913960400191505060405180910390fd5b600d54604080516001600160a01b039092168252517f506c3ca15aa2d71ce73392fec5af1c05c45197fb3c1065e873f51593a7cdfa759181900360200190a1611307611329565b600d80546001600160a01b0319166001600160a01b0392909216919091179055565b6000546001600160a01b031690565b600f54151590565b600080546001600160a01b0316331461138d57604051600160e51b62461bcd02815260040180806020018281038252602c8152602001806125b2602c913960400191505060405180910390fd5b600360005260086020526000805160206124ea8339815191525480158015906113b557504281105b91505090565b600d546001600160a01b0316331461140757604051600160e51b62461bcd02815260040180806020018281038252602681526020018061263d6026913960400191505060405180910390fd5b6003600081905260086020526000805160206124ea83398151915254421061146357604051600160e51b62461bcd02815260040180806020018281038252602381526020018061250a6023913960400191505060405180910390fd5b4260086000600184600381111561147657fe5b0381526020019081526020016000205411156114c657604051600160e51b62461bcd0281526004018080602001828103825260248152602001806124c66024913960400191505060405180910390fd5b6000600560006114d6600b611be9565b61ffff168152602080820192909252604090810160009081206001600160a01b038716825260028101909352205490915060ff168061154957604051600160e51b62461bcd02815260040180806020018281038252602a815260200180612557602a913960400191505060405180910390fd5b600060ff8083166000908152600185016020526040902054600160a01b900416600281111561157457fe5b14156115ca5760408051600160e51b62461bcd02815260206004820152601d60248201527f43616e206f6e6c7920617070726f7665206f70656e20436c61696d7321000000604482015290519081900360640190fd5b60ff811660009081526001830160205260409020805460029190600160a01b60ff021916600160a01b830217905550604080516001600160a01b038616815290517fb7fa0f30e1ede3196616147dfdf6c94e47523298677b4f7b0c61027a9f0ebf549181900360200190a150505050565b600d546001600160a01b0316331461168757604051600160e51b62461bcd02815260040180806020018281038252602681526020018061263d6026913960400191505060405180910390fd5b600360005260086020526000805160206124ea833981519152544210156116e257604051600160e51b62461bcd0281526004018080602001828103825260458152602001806124816045913960600191505060405180910390fd5b6001600160a01b03821660009081526001602052604090205460ff16156117535760408051600160e51b62461bcd02815260206004820152601c60248201527f506f6c696379686f6c64657220616c7265616479206578697374732100000000604482015290519081900360640190fd5b60ff8116600090815260026020526040902060079061177190611be9565b106117bd5760408051600160e51b62461bcd0281526020600482015260116024820152600160781b7053756267726f75702069732066756c6c2102604482015290519081900360640190fd5b6001600160a01b0382166000908152600160209081526040808320805460ff191660ff86169081179091558352600290915290206117fa90611c04565b604080516001600160a01b038416815290517ffd4bbf7aab6797f9bba4fe69d15ee6bbbb91ae8aea5fd72543e6397ccf4857e19181900360200190a15050565b600d546001600160a01b0316331461188657604051600160e51b62461bcd02815260040180806020018281038252602681526020018061263d6026913960400191505060405180910390fd5b600360005260086020526000805160206124ea833981519152544210156118e157604051600160e51b62461bcd0281526004018080602001828103825260458152602001806124816045913960600191505060405180910390fd5b60326118ed600a611be9565b101561192d57604051600160e51b62461bcd0281526004018080602001828103825260268152602001806123db6026913960400191505060405180910390fd5b600360005260086020526000805160206124ea8339815191525442101561198857604051600160e51b62461bcd0281526004018080602001828103825260248152602001806123b76024913960400191505060405180910390fd5b6008602052427f5eff886ea0ce6ca488a3d6e336d6c0f75f46d19b42c06ce5ee98e42c96d256c78190556203f48081017fad67d757c34507f157cacfa2e3153e9f260a2244f30428821be7be64587ac55f556223988081017f6add646517a5b0f6793cd5891b7937d28a5b2981a5d88ebc7cd776088fea9041556003600090815262278d009091016000805160206124ea833981519152556040517f0f2e5b6c72c6a4491efd919a9f9a409f324ef0708c11ee57d410c2cb06c0992b9190a1565b600d546001600160a01b03163314611a9557604051600160e51b62461bcd02815260040180806020018281038252602681526020018061263d6026913960400191505060405180910390fd5b600360005260086020526000805160206124ea83398151915254421015611af057604051600160e51b62461bcd0281526004018080602001828103825260458152602001806124816045913960600191505060405180910390fd5b6001600160a01b03811660009081526001602052604090205460ff16611b605760408051600160e51b62461bcd02815260206004820152601c60248201527f506f6c696379686f6c64657220646f6573206e6f742065786973742100000000604482015290519081900360640190fd5b6001600160a01b03811660009081526001602090815260408083205460ff16835260029091529020611b9190611bed565b6001600160a01b038116600081815260016020908152604091829020805460ff19169055815192835290517f958bba7b27d02e0f577e23ded3d387f0925cc5feb0e6abb66472219429e90d8c9281900390910190a150565b5490565b8054611c0090600163ffffffff61235616565b9055565b80546001019055565b600060056000611c1d600b611be9565b61ffff168152602081019190915260400160009081209150611c3e82611be9565b60ff8082166000908152600185016020526040808220805488851684529190922080546001600160a01b0319166001600160a01b039092169182178082558354959650919492939092600160a01b90819004909116918391600160a01b60ff021990911690836002811115611caf57fe5b0217905550505060ff82166000908152600184016020526040902080546001600160a81b031981169091556001600160a01b0316611cec84611bed565b6001600160a01b03918216600090815260029094016020526040808520805460ff199081169091559190921684529220805460ff929092169190921617905550565b6001600160a01b03811660009081526007602052604081205460ff1690611d55600c611be9565b60ff8082166000908152600660209081526040808320805494881680855282852080546001600160a01b03199081166001600160a01b039889161782558354169092559054851684526007909252808320805460ff1990811690931790559287168252919020805490911690559050611dce600c611bed565b505050565b600060056000611de3600b611be9565b61ffff1681526020810191909152604001600020905060015b611e0582611be9565b8160ff1611611eb25760ff808216600090815260018085016020908152604080842080546001600160a01b0316855292825280842054851680855260049092529092205490921615611ea8578154604080516001600160a01b039092168252517f807cbf53ed97ceeac8ee2e9d7e4a9d1377812084c37429388f2ac5ff49c5353b9181900360200190a1611e9883611c0d565b60001990920191611ea884611bed565b5050600101611dfc565b5050565b600060056000611ec6600b611be9565b61ffff16815260208101919091526040016000908120600d54909250600160a01b900460ff1660190290611ef983611be9565b60095460408051600160e01b6370a08231028152306004820152905192935060009260ff8516926001600160a01b0316916370a08231916024808301926020929190829003018186803b158015611f4f57600080fd5b505afa158015611f63573d6000803e3d6000fd5b505050506040513d6020811015611f7957600080fd5b505160ff1681611f8557fe5b0490508260ff168160ff161115611f995750815b60005b8260ff168160ff1610156120595760ff80821660009081526001870160209081526040808320546009548251600160e01b63a9059cbb0281526001600160a01b03928316600482018190529689166024820152925191169363a9059cbb93604480850194919392918390030190829087803b15801561201a57600080fd5b505af115801561202e573d6000803e3d6000fd5b505050506040513d602081101561204457600080fd5b50612050905081611d2e565b50600101611f9c565b5050505050565b60095460408051600160e01b6370a0823102815230600482015290516000926001600160a01b0316916370a08231916024808301926020929190829003018186803b1580156120ae57600080fd5b505afa1580156120c2573d6000803e3d6000fd5b505050506040513d60208110156120d857600080fd5b505111156112725760006120ec600c611be9565b60095460408051600160e01b6370a08231028152306004820152905192935060009260ff8516926001600160a01b0316916370a08231916024808301926020929190829003018186803b15801561214257600080fd5b505afa158015612156573d6000803e3d6000fd5b505050506040513d602081101561216c57600080fd5b50518161217557fe5b04905060005b8260ff168160ff161015611dce5760ff81166000908152600660209081526040808320546009548251600160e01b63a9059cbb0281526001600160a01b03928316600482018190526024820189905293519395919092169363a9059cbb93604480850194929391928390030190829087803b1580156121f957600080fd5b505af115801561220d573d6000803e3d6000fd5b505050506040513d602081101561222357600080fd5b50506001600160a01b03166000908152600760209081526040808320805460ff1916905560ff841683526006909152902080546001600160a01b031916905560010161217b565b600360005260086020526000805160206124ea833981519152544210156122c557604051600160e51b62461bcd0281526004018080602001828103825260458152602001806124816045913960600191505060405180910390fd5b600860205260007f5eff886ea0ce6ca488a3d6e336d6c0f75f46d19b42c06ce5ee98e42c96d256c78190557fad67d757c34507f157cacfa2e3153e9f260a2244f30428821be7be64587ac55f8190557f6add646517a5b0f6793cd5891b7937d28a5b2981a5d88ebc7cd776088fea9041819055600381526000805160206124ea83398151915255611272600b611c04565b6000828211156123b05760408051600160e51b62461bcd02815260206004820152601e60248201527f536166654d6174683a207375627472616374696f6e206f766572666c6f770000604482015290519081900360640190fd5b5090039056fe47726f757020697320616c726561647920696e20616e20657363726f77206379636c6521496e73756666696369656e742073697a6520746f20626567696e207072652d706572696f6421436c61696d616e7420616c72656164792068617320616e206578697374696e6720436c61696d21496e73756666696369656e74204461692062616c616e636520666f722054616e646120496e737572616e63652141646472657373206973206e6f74206120506f6c696379686f6c64657220696e20746869732047726f75702143616e6e6f7420706572666f726d2072656d697474616e6365207768696c6520496e737572616e636520657363726f77206973207374696c6c2074696d656c6f636b656421546f6f206561726c7920696e20706572696f6420666f72207468697320416374696f6e21625b35f5e76f098dd7c3a05b10e2e5e78a4a01228d60c3b143426cdf36d26455546f6f206c61746520696e20706572696f6420666f72207468697320416374696f6e215365636f6e646172793a206e6577207072696d61727920697320746865207a65726f2061646472657373506f6c696379686f6c64657220646f6573206e6f742068617665206578697374696e6720636c61696d21506f6c696379686f6c646572206973206e6f742061637469766520696e207468652063757272656e7420506572696f64215365636f6e646172793a2063616c6c6572206973206e6f7420746865207072696d617279206163636f756e74506f6c696379686f6c64657220646f6573206e6f74206861766520616e206578697374696e6720436c61696d215468697320636f6e7472616374206973206e6f74206f776e6564206279207468652054616e6461506179536572766963652141646472657373206973206e6f7420746869732047726f757027732053656372657461727921a165627a7a72305820de4a5cb4414a198d60c525abe6f231f7f8817f4a767047873c1d8b2761b296da00295072656d69756d206973206f7574206f6620626f756e6473212028546f6f2068696768206f72206c6f7729546869732047726f7570206973206e6f74206f776e6564206279207468652054616e6461506179536572766963652141646472657373206973206e6f7420612054616e64615061792041646d696e6973747261746f72214164647265737320697320616c726561647920616e2041646d696e6973747261746f7221a165627a7a723058203576b8287078cf3b92faca0deba699ade3394bb3255022a1efa318e5c3cf632d0029",
  "source": "pragma solidity >= 0.4.0 < 0.7.0;\n\nimport './ITandaPayService.sol';\nimport './Group.sol';\n\n/**\n * @author blOX Consulting LLC.\n * Date: 6.20.19\n * Implementation of main TandaPay service\n **/\ncontract TandaPayService is ITandaPayService {\n    \n    constructor(address _dai) public {\n        administrators[msg.sender] = true;\n        Dai = IERC20(_dai);\n        emit AdminApproved(msg.sender);\n    }\n\n    function addAdmin(address _to) public isAdmin() {\n        require(!administrators[_to], \"Address is already an Administrator!\");\n        administrators[_to] = true;\n        emit AdminApproved(_to);\n    }\n    \n    function removeAdmin(address _from) public isAdmin() {\n        require(administrators[_from], \"Address is not an Administrator!\");\n        administrators[_from] = false;\n        emit AdminRevoked(_from);\n    }\n    \n    function createGroup(address _to, uint8 _premium) public isAdmin() returns (address _group) {\n        require(groups[secretaries[_to]] == address(0) , \"Address is already a Secretary!\");\n        require(MIN_PREMIUM < _premium && _premium <= MAX_PREMIUM, \"Premium is out of bounds! (Too high or low)\");\n        Group group = new Group(_to, _premium, address(Dai));\n        _group = address(group);\n        groups[groupCount.current()] = _group;\n        secretaries[_to] = groupCount.current();\n        groupCount.increment();\n        emit GroupCreated(_group);\n    }\n    \n    function removeSecretary(address _from) public isAdmin {\n        address groupAddress = groups[secretaries[_from]];\n        require(groupAddress != address(0), \"Address is not a Secretary!\");\n        Group(groupAddress).overthrow();\n        delete secretaries[_from];\n        emit SecretaryRevoked(_from, groupAddress);\n    }\n    \n    function installSecretary(address _secretary, address _group) public isAdmin() {\n        require(Group(_group).secretary() == address(this), \"This Group is not owned by the TandaPayService!\");\n        Group(_group).install(_secretary);\n        emit SecretaryInstalled(_secretary);\n    }\n    \n    function processAll() public isAdmin {\n        for(uint i = 0; i < groupCount.current(); i++) {\n            if(Group(groups[i]).remittable())\n                remitGroup(groups[i]);\n        }\n    }\n    \n    function remitGroup(address _group) public isAdmin {\n        Group(_group).remit();\n        emit Remitted(_group);\n    }\n\n    function loan(address _group) public isAdmin {}\n}\n",
  "sourcePath": "/home/jack/TandaPay-Contracts/contracts/TandaPayService.sol",
  "compiler": {
    "name": "solc",
    "version": "0.5.8+commit.23d335f2.Emscripten.clang"
  },
  "schemaVersion": "3.0.11",
  "updatedAt": "2019-06-21T18:25:04.281Z",
  "devdoc": {
    "author": "blOX Consulting LLC. Date: 6.20.19 Implementation of main TandaPay service*",
    "methods": {}
  },
  "userdoc": {
    "methods": {}
  }
}